:020000040800F2
:1000000000500020F91F00082B05000831050008EA
:10001000370500083D050008430500080000000002
:10002000000000000000000000000000490500087A
:100030005505000800000000610500086D05000876
:10004000412000084120000841200008412000080C
:1000500041200008412000084120000841200008FC
:1000600041200008412000084120000841200008EC
:1000700041200008412000084120000841200008DC
:1000800041200008412000084120000841200008CC
:1000900041200008412000084120000841200008BC
:1000A00041200008412000084120000841200008AC
:1000B000412000084120000879050008412000087F
:1000C000412000084120000841200008412000088C
:1000D000412000084120000841200008412000087C
:1000E00041200008412000084120000800000000D5
:1000F0000000000000000000000000000000000000
:0C01000000000000000000005FF808F1A3
:10010C0010B5054C237833B9044B13B10448AFF345
:10011C0000800123237010BD0C00002000000000A3
:10012C009C20000808B5034B1BB103490348AFF3EF
:10013C00008008BD00000000100000209C2000087A
:10014C0080B582B000AF786001220821034801F02D
:10015C00DDFC00BF0837BD4680BD00BF000C014070
:10016C0080B582B000AF00F0C1FE00F03BF800F0AB
:10017C0049F900F07DF800F0F7F800F0A7F801223B
:10018C001021144801F0C2FC134B00221A601348D2
:10019C0000F002FB00237B6014E000224FF40051BE
:1001AC000F4801F0B3FC192000F002FF01224FF4BC
:1001BC0000510B4801F0AAFC322000F0F9FE7B68DC
:1001CC0001337B607B68072BE7D94FF4487000F054
:1001DC00EFFEDFE7000C01400C010020C400002002
:1001EC000010014080B590B000AF07F11803282231
:1001FC000021184601F044FF3B1D00221A605A6092
:10020C009A60DA601A610123BB614FF48033FB61A1
:10021C0000233B620123BB6202237B634FF48033D8
:10022C00BB634FF4E013FB6307F11803184600F0AF
:10023C00E3FE0346002B01D000F06CF90F237B602A
:10024C000223BB600023FB604FF480633B610023FF
:10025C007B613B1D0221184601F050F90346002B2F
:10026C0001D000F057F900BF4037BD4680BD0000FB
:10027C0080B500AF124B134A1A60114B124A5A60E8
:10028C000F4B00229A600E4B0022DA600C4B4FF49D
:10029C0080421A610A4B00225A61094B00229A6172
:1002AC00074B0022DA61064B00221A62044801F067
:1002BC0059FD0346002B01D000F02CF900BF80BD86
:1002CC002800002000540040A086010080B586B0B4
:1002DC0000AF07F1080300221A605A609A60DA60D6
:1002EC003B4600221A605A601D4B1E4A1A601C4B7A
:1002FC0047225A601A4B00229A60194B4FF47A72BB
:10030C00DA60174B00221A61154B00229A611448CF
:10031C0000F0F2F90346002B01D000F0FBF84FF48B
:10032C008053BB6007F1080319460D4800F08EFBA3
:10033C000346002B01D000F0EDF800233B600023B6
:10034C007B603B461946064800F060FD0346002BD7
:10035C0001D000F0DFF800BF1837BD4680BD00BFEC
:10036C007C0000200004004080B586B000AF07F18F
:10037C00080300221A605A609A60DA603B46002239
:10038C001A605A601D4B1E4A1A601C4B41F61F42E4
:10039C005A601A4B00229A60184B42F21072DA60C3
:1003AC00164B00221A61154B00229A61134800F07B
:1003BC00A3F90346002B01D000F0ACF84FF48053A6
:1003CC00BB6007F1080319460C4800F03FFB0346DD
:1003DC00002B01D000F09EF800233B6000237B60D3
:1003EC003B461946054800F011FD0346002B01D091
:1003FC0000F090F800BF1837BD4680BDC400002047
:10040C000008004080B588B000AF07F1100300224F
:10041C001A605A609A60DA603A4B9B69394A43F029
:10042C0010039361374B9B6903F01003FB60FB686F
:10043C00344B9B69334A43F020039361314B9B69E6
:10044C0003F02003BB60BB682E4B9B692D4A43F025
:10045C00040393612B4B9B6903F004037B607B6863
:10046C00284B9B69274A43F008039361254B9B69F2
:10047C0003F008033B603B6800224FF40051224814
:10048C0001F044FB00221821204801F03FFB4FF4FF
:10049C0000533B6101237B610023BB610223FB61A1
:1004AC0007F110031946184801F0ACF9C0233B6161
:1004BC0000237B610023BB6107F11003194614482C
:1004CC0001F0A0F94FF480633B6100237B610023B2
:1004DC00BB6107F1100319460C4801F093F918237E
:1004EC003B6101237B610023BB610223FB6107F1AC
:1004FC0010031946054801F085F900BF2037BD46A9
:10050C0080BD00BF0010024000100140000C0140F3
:10051C000008014080B400AF72B600BFFEE780B4A3
:10052C0000AFFEE780B400AFFEE780B400AFFEE79B
:10053C0080B400AFFEE780B400AFFEE780B400AF3C
:10054C0000BFBD4680BC704780B400AF00BFBD4645
:10055C0080BC704780B400AF00BFBD4680BC704704
:10056C0080B500AF00F008FD00BF80BD80B500AFC6
:10057C00024800F063F900BF80BD00BFC40000203A
:10058C0080B485B000AF154B9B69144A43F001034E
:10059C009361124B9B6903F00103BB60BB680F4B6B
:1005AC00DB690E4A43F08053D3610C4BDB6903F0DB
:1005BC0080537B607B680A4B5B68FB60FB6823F0B5
:1005CC00E063FB60FB6843F00073FB60044AFB686C
:1005DC00536000BF1437BD4680BC7047001002400A
:1005EC000000014080B58AB000AF786007F11403B9
:1005FC0000221A605A609A60DA607B681B681D4A98
:10060C00934232D11C4B9B691B4A43F00803936104
:10061C00194B9B6903F008033B613B694FF4407332
:10062C007B611223BB6103233B6207F11403194660
:10063C00124801F0E7F8124B5B687B627B6A43F06F
:10064C00E0637B627B6A43F002037B620C4A7B6A49
:10065C005360094BDB69084A43F40013D361064B22
:10066C00DB6903F40013FB60FB6800BF2837BD4651
:10067C0080BD00BF0054004000100240000C01403F
:10068C000000014080B584B000AF78607B681B68C7
:10069C00164A93420CD1164BDB69154A43F0020300
:1006AC00D361134BDB6903F00203FB60FB6818E0BA
:1006BC007B681B680F4A934213D10D4BDB690C4AC4
:1006CC0043F00403D3610A4BDB6903F00403BB6002
:1006DC00BB68002200211E2001F007FB1E2001F048
:1006EC0020FB00BF1037BD4680BD00BF000400409A
:1006FC00001002400008004080B582B000AF786066
:10070C007B68002B01D1012341E07B6893F83D30DD
:10071C00DBB2002B06D17B68002283F83C20786882
:10072C00FFF7B0FF7B68022283F83D207B681A68D4
:10073C007B6804331946104600F070FA7B6801227E
:10074C0083F846207B68012283F83E207B680122D7
:10075C0083F83F207B68012283F840207B680122CC
:10076C0083F841207B68012283F842207B680122B8
:10077C0083F843207B68012283F844207B680122A4
:10078C0083F845207B68012283F83D20002318461E
:10079C000837BD4680BD000080B485B000AF7860DE
:1007AC007B6893F83D30DBB2012B01D001233AE09A
:1007BC007B68022283F83D207B681B68DA687B68C3
:1007CC001B6842F00102DA607B681B68184A93428E
:1007DC000ED07B681B68B3F1804F09D07B681B6817
:1007EC00144A934204D07B681B68134A934211D17C
:1007FC007B681B689B6803F00703FB60FB68062B98
:10080C0010D07B681B681A687B681B6842F0010279
:10081C001A6007E07B681B681A687B681B6842F0EB
:10082C0001021A60002318461437BD4680BC70477D
:10083C00002C0140000400400008004080B582B04C
:10084C0000AF78607B681B681B6903F00203022B06
:10085C0022D17B681B68DB6803F00203022B1BD1DF
:10086C007B681B686FF002021A617B6801221A77A1
:10087C007B681B689B6903F00303002B03D078682B
:10088C0000F0B1F905E0786800F0A4F9786800F0A0
:10089C00B3F97B6800221A777B681B681B6903F02D
:1008AC000403042B22D17B681B68DB6803F0040370
:1008BC00042B1BD17B681B686FF004021A617B68E8
:1008CC0002221A777B681B689B6903F44073002B28
:1008DC0003D0786800F087F905E0786800F07AF9C1
:1008EC00786800F089F97B6800221A777B681B68AE
:1008FC001B6903F00803082B22D17B681B68DB689B
:10090C0003F00803082B1BD17B681B686FF00802EF
:10091C001A617B6804221A777B681B68DB6903F019
:10092C000303002B03D0786800F05DF905E07868CC
:10093C0000F050F9786800F05FF97B6800221A77B4
:10094C007B681B681B6903F01003102B22D17B689A
:10095C001B68DB6803F01003102B1BD17B681B6832
:10096C006FF010021A617B6808221A777B681B688B
:10097C00DB6903F44073002B03D0786800F033F983
:10098C0005E0786800F026F9786800F035F97B68A6
:10099C0000221A777B681B681B6903F00103012B8B
:1009AC000ED17B681B68DB6803F00103012B07D1B8
:1009BC007B681B686FF001021A617868FFF7C0FB57
:1009CC007B681B681B6903F08003802B0ED17B684E
:1009DC001B68DB6803F08003802B07D17B681B68E6
:1009EC006FF080021A61786800F077FA7B681B68F8
:1009FC001B6903F04003402B0ED17B681B68DB683E
:100A0C0003F04003402B07D17B681B686FF040025A
:100A1C001A61786800F0F9F87B681B681B6903F0B1
:100A2C002003202B0ED17B681B68DB6803F02003AE
:100A3C00202B07D17B681B686FF020021A61786845
:100A4C0000F042FA00BF0837BD4680BD80B584B0C7
:100A5C0000AF786039607B6893F83C30012B01D192
:100A6C000223B3E07B68012283F83C207B680222DE
:100A7C0083F83D207B681B689B68FB60FB6823F058
:100A8C007703FB60FB6823F47F43FB607B681B6888
:100A9C00FA689A603B681B68B3F5005F3ED0B3F50B
:100AAC00005F00F28780B3F5805F00F08580B3F5BE
:100ABC00805F7FD8702B1AD0702B7BD8602B50D0D6
:100ACC00602B77D8502B3CD0502B73D8402B58D060
:100ADC00402B6FD8302B64D0302B6BD8202B60D0B0
:100AEC00202B67D8002B5CD0102B5AD062E07B688F
:100AFC0018683B6899683B685A683B68DB6800F08B
:100B0C0066F97B681B689B68FB60FB6843F07703A6
:100B1C00FB607B681B68FA689A604EE07B6818681B
:100B2C003B6899683B685A683B68DB6800F04FF992
:100B3C007B681B689A687B681B6842F480429A60E9
:100B4C003BE07B6818683B6859683B68DB681A4671
:100B5C0000F0C6F87B681B685021184600F01DF9A0
:100B6C002BE07B6818683B6859683B68DB681A4661
:100B7C0000F0E4F87B681B686021184600F00DF962
:100B8C001BE07B6818683B6859683B68DB681A4651
:100B9C0000F0A6F87B681B684021184600F0FDF8B1
:100BAC000BE07B681A683B681B681946104600F01E
:100BBC00F4F802E000BF00E000BF7B68012283F87C
:100BCC003D207B68002283F83C2000231846103718
:100BDC00BD4680BD80B483B000AF786000BF0C37D9
:100BEC00BD4680BC704780B483B000AF786000BF56
:100BFC000C37BD4680BC704780B483B000AF7860C2
:100C0C0000BF0C37BD4680BC704780B483B000AFCA
:100C1C00786000BF0C37BD4680BC704780B485B08F
:100C2C0000AF786039607B681B68FB607B68294A81
:100C3C0093420BD07B68B3F1804F07D07B68264A78
:100C4C00934203D07B68254A934208D1FB6823F07A
:100C5C007003FB603B685B68FA681343FB607B685E
:100C6C001C4A93420BD07B68B3F1804F07D07B6852
:100C7C00194A934203D07B68184A934208D1FB6807
:100C8C0023F44073FB603B68DB68FA681343FB603A
:100C9C00FB6823F080023B685B691343FB607B6855
:100CAC00FA681A603B689A687B68DA623B681A6873
:100CBC007B689A627B68074A934203D13B681A6946
:100CCC007B681A637B6801225A6100BF1437BD46EA
:100CDC0080BC7047002C014000040040000800401C
:100CEC0080B487B000AFF860B9607A60FB681B6AAB
:100CFC007B61FB681B6A23F00102FB681A62FB68CC
:100D0C009B693B613B6923F0F0033B617B681B01F2
:100D1C003A6913433B617B6923F00A037B617A696F
:100D2C00BB6813437B61FB683A699A61FB687A691B
:100D3C001A6200BF1C37BD4680BC704780B487B0B8
:100D4C0000AFF860B9607A60FB681B6A23F0100290
:100D5C00FB681A62FB689B697B61FB681B6A3B61E1
:100D6C007B6923F470437B617B681B037A691343B3
:100D7C007B613B6923F0A0033B61BB681B013A69B3
:100D8C0013433B61FB687A699A61FB683A691A62A2
:100D9C0000BF1C37BD4680BC704780B485B000AF27
:100DAC00786039607B689B68FB60FB6823F070039C
:100DBC00FB603A68FB68134343F00703FB607B68F6
:100DCC00FA689A6000BF1437BD4680BC704780B487
:100DDC0087B000AFF860B9607A603B60FB689B68D5
:100DEC007B617B6923F47F437B613B681A027B68E0
:100DFC001A43BB6813437A6913437B61FB687A69B6
:100E0C009A6000BF1C37BD4680BC704780B485B06B
:100E1C0000AF786039607B6893F83C30012B01D1CE
:100E2C00022346E07B68012283F83C207B68022287
:100E3C0083F83D207B681B685B68FB607B681B68E4
:100E4C009B68BB60FB6823F07003FB603B681B680E
:100E5C00FA681343FB607B681B68FA685A607B680E
:100E6C001B68164A93420ED07B681B68B3F1804F07
:100E7C0009D07B681B68124A934204D07B681B68BC
:100E8C00104A93420CD1BB6823F08003BB603B68D3
:100E9C005B68BA681343BB607B681B68BA689A606E
:100EAC007B68012283F83D207B68002283F83C207C
:100EBC00002318461437BD4680BC7047002C0140F7
:100ECC00000400400008004080B483B000AF78609C
:100EDC0000BF0C37BD4680BC704780B483B000AFF8
:100EEC00786000BF0C37BD4680BC704780B500AF42
:100EFC00084B1B68074A43F010031360032000F0F3
:100F0C00E9FE002000F008F8FFF73AFB0023184632
:100F1C0080BD00BF0020024080B582B000AF786079
:100F2C00124B1A68124B1B7819464FF47A73B3FBA9
:100F3C00F1F3B2FBF3F3184600F001FF0346002B6C
:100F4C0001D001230EE07B680F2B0AD800227968B0
:100F5C004FF0FF3000F0C9FE064A7B681360002397
:100F6C0000E0012318460837BD4680BD080000206C
:100F7C00040000200000002080B400AF054B1B785B
:100F8C001A46054B1B681344034A136000BFBD4649
:100F9C0080BC7047040000201001002080B400AF1A
:100FAC00024B1B681846BD4680BC704710010020E0
:100FBC0080B584B000AF7860FFF7F0FFB8607B6855
:100FCC00FB60FB68B3F1FF3F05D00A4B1B781A4658
:100FDC00FB681344FB6000BFFFF7E0FF0246BB68F1
:100FEC00D31AFA689A42F7D800BF00BF1037BD4633
:100FFC0080BD00BF0400002080B586B000AF7860D3
:10100C007B68002B01D1012372E27B681B6803F023
:10101C000103002B00F08780924B5B6803F00C03FC
:10102C00042B0CD08F4B5B6803F00C03082B12D1F4
:10103C008C4B5B6803F48033B3F5803F0BD1894B49
:10104C001B6803F40033002B6CD07B685B68002BAF
:10105C0068D101234CE27B685B68B3F5803F06D115
:10106C00804B1B687F4A43F4803313602EE07B680F
:10107C005B68002B0CD17B4B1B687A4A23F48033C2
:10108C001360784B1B68774A23F4802313601DE0B0
:10109C007B685B68B3F5A02F0CD1724B1B68714A4F
:1010AC0043F4802313606F4B1B686E4A43F4803308
:1010BC0013600BE06B4B1B686A4A23F4803313609C
:1010CC00684B1B68674A23F4802313607B685B685A
:1010DC00002B13D0FFF762FF386108E0FFF75EFFCB
:1010EC0002463B69D31A642B01D9032300E25D4B02
:1010FC001B6803F40033002BF0D014E0FFF74EFF15
:10110C00386108E0FFF74AFF02463B69D31A642BAB
:10111C0001D90323ECE1534B1B6803F40033002B80
:10112C00F0D100E000BF7B681B6803F00203002BCA
:10113C0063D04C4B5B6803F00C03002B0BD0494B7A
:10114C005B6803F00C03082B1CD1464B5B6803F463
:10115C008033002B16D1434B1B6803F00203002B8A
:10116C0005D07B681B69012B01D00123C0E13D4BED
:10117C001B6823F0F8027B685B69DB003949134379
:10118C000B603AE07B681B69002B20D0364B0122A8
:10119C001A60FFF703FF386108E0FFF7FFFE024615
:1011AC003B69D31A022B01D90323A1E12D4B1B68F8
:1011BC0003F00203002BF0D02A4B1B6823F0F8023B
:1011CC007B685B69DB00274913430B6015E0264BFA
:1011DC0000221A60FFF7E2FE386108E0FFF7DEFE3E
:1011EC0002463B69D31A022B01D9032380E11D4B24
:1011FC001B6803F00203002BF0D17B681B6803F023
:10120C000803002B3AD07B689B69002B19D0174B35
:10121C0001221A60FFF7C2FE386108E0FFF7BEFE3C
:10122C0002463B69D31A022B01D9032360E10D4B13
:10123C005B6A03F00203002BF0D0012000F0C4FA2B
:10124C001CE00A4B00221A60FFF7A8FE38610FE081
:10125C00FFF7A4FE02463B69D31A022B08D90323DD
:10126C0046E100BF001002400000424280044242AE
:10127C00924B5B6A03F00203002BE9D17B681B687D
:10128C0003F00403002B00F0A6800023FB758B4BAE
:10129C00DB6903F08053002B0DD1884BDB69874A47
:1012AC0043F08053D361854BDB6903F08053BB6003
:1012BC00BB680123FB75824B1B6803F48073002B06
:1012CC0018D17F4B1B687E4A43F480731360FFF781
:1012DC0065FE386108E0FFF761FE02463B69D31AF0
:1012EC00642B01D9032303E1754B1B6803F4807352
:1012FC00002BF0D07B68DB68012B06D16F4B1B6A8F
:10130C006E4A43F0010313622DE07B68DB68002B0F
:10131C000CD16A4B1B6A694A23F001031362674BB9
:10132C001B6A664A23F0040313621CE07B68DB68CB
:10133C00052B0CD1614B1B6A604A43F0040313620A
:10134C005E4B1B6A5D4A43F0010313620BE05B4B7F
:10135C001B6A5A4A23F001031362584B1B6A574A03
:10136C0023F0040313627B68DB68002B15D0FFF7B6
:10137C0015FE38610AE0FFF711FE02463B69D31AED
:10138C0041F28832934201D90323B1E04B4B1B6AE3
:10139C0003F00203002BEED014E0FFF7FFFD3861E1
:1013AC000AE0FFF7FBFD02463B69D31A41F2883293
:1013BC00934201D903239BE0404B1B6A03F00203C9
:1013CC00002BEED1FB7D012B05D13C4BDB693B4A5D
:1013DC0023F08053D3617B68DB69002B00F087809E
:1013EC00364B5B6803F00C03082B61D07B68DB6920
:1013FC00022B46D1334B00221A60FFF7CFFD386128
:10140C0008E0FFF7CBFD02463B69D31A022B01D94A
:10141C0003236DE0294B1B6803F00073002BF0D104
:10142C007B681B6AB3F5803F08D1244B5B6823F4BF
:10143C0000327B689B68214913434B601F4B5B68F0
:10144C0023F474127B68196A7B685B6A0B431B4933
:10145C0013434B601B4B01221A60FFF79FFD386151
:10146C0008E0FFF79BFD02463B69D31A022B01D91A
:10147C0003233DE0114B1B6803F00073002BF0D0ED
:10148C0035E0104B00221A60FFF788FD386108E048
:10149C00FFF784FD02463B69D31A022B01D90323C3
:1014AC0026E0064B1B6803F00073002BF0D11EE006
:1014BC007B68DB69012B07D1012319E00010024086
:1014CC0000700040600042420B4B5B68FB60FB68A5
:1014DC0003F480327B681B6A9A4206D1FB6803F4E2
:1014EC0070127B685B6A9A4201D0012300E00023F2
:1014FC0018461837BD4680BD0010024080B584B038
:10150C0000AF786039607B68002B01D10123D0E0FB
:10151C006A4B1B6803F007033A689A4210D9674B71
:10152C001B6823F0070265493B6813430B60634B50
:10153C001B6803F007033A689A4201D00123B8E014
:10154C007B681B6803F00203002B20D07B681B68B0
:10155C0003F00403002B05D0594B5B68584A43F445
:10156C00E06353607B681B6803F00803002B05D015
:10157C00534B5B68524A43F460535360504B5B6867
:10158C0023F0F0027B689B684D4913434B607B68EA
:10159C001B6803F00103002B40D07B685B68012BB8
:1015AC0007D1474B1B6803F40033002B15D10123E3
:1015BC007FE07B685B68022B07D1414B1B6803F013
:1015CC000073002B09D1012373E03D4B1B6803F022
:1015DC000203002B01D101236BE0394B5B6823F034
:1015EC0003027B685B68364913434B60FFF7D6FCFC
:1015FC00F8600AE0FFF7D2FC0246FB68D31A41F20E
:10160C008832934201D9032353E02D4B5B6803F0DE
:10161C000C027B685B689B009A42EBD1274B1B68E2
:10162C0003F007033A689A4210D2244B1B6823F04C
:10163C00070222493B6813430B60204B1B6803F0E5
:10164C0007033A689A4201D0012332E07B681B6899
:10165C0003F00403002B08D0194B5B6823F4E06201
:10166C007B68DB68164913434B607B681B6803F08F
:10167C000803002B09D0124B5B6823F460527B6883
:10168C001B69DB000E4913434B6000F021F8024646
:10169C000B4B5B681B0903F00F030A49CB5C22FA66
:1016AC0003F3094A1360094B1B681846FFF734FC17
:1016BC00002318461037BD4680BD00BF00200240F5
:1016CC0000100240C4200008080000200000002088
:1016DC0090B48AB000AF294B3C1D0FCB84E80F00AF
:1016EC0040F201233B800023FB610023BB610023FC
:1016FC007B6200237B6100233B62214B5B68FB61B7
:10170C00FB6903F00C03042B02D0082B03D02BE055
:10171C001C4B3B622BE0FB699B0C03F00F03283343
:10172C003B4413F8243C7B61FB6903F48033002BAE
:10173C0012D0134B5B685B0C03F0010328333B4462
:10174C0013F8283CBB617B690E4A03FB02F2BB69B0
:10175C00B2FBF3F37B6204E07B690B4A02FB03F3FD
:10176C007B627B6A3B6202E0064B3B6200BF3B6ADA
:10177C0018462837BD4690BC704700BFB4200008FF
:10178C000010024000127A0000093D0080B400AF46
:10179C00024B1B681846BD4680BC704708000020F1
:1017AC0080B500AFFFF7F2FF0246054B5B681B0AE2
:1017BC0003F007030349CB5C22FA03F3184680BD00
:1017CC0000100240D420000880B485B000AF7860CF
:1017DC000A4B1B680A4AA2FB03235B0A7A6802FBCA
:1017EC0003F3FB6000BFFB685A1EFA60002BF9D1B3
:1017FC0000BF00BF1437BD4680BC704708000020F6
:10180C00D34D621080B48BB000AF78603960002388
:10181C007B6200233B6269E101227B6A02FA03F3DB
:10182C00FB613B681B68FA691340BB61BA69FB69D1
:10183C009A4240F058813B685B689A4A93425ED06A
:10184C00984A934275D8984A934258D0964A9342F4
:10185C006FD8964A934252D0944A934269D8944A8C
:10186C0093424CD0924A934263D8924A934246D0C8
:10187C00904A93425DD8122B2AD8122B59D801A228
:10188C0052F823F00B190008E5180008F7180008A7
:10189C00391900083F1900083F1900083F190008C2
:1018AC003F1900083F1900083F1900083F190008AC
:1018BC003F1900083F1900083F1900083F1900089C
:1018CC003F1900083F190008ED180008011900081D
:1018DC00794A934213D02CE03B68DB683B6229E0E9
:1018EC003B68DB6804333B6224E03B68DB6808330D
:1018FC003B621FE03B68DB680C333B621AE03B68E1
:10190C009B68002B02D104233B6213E03B689B686D
:10191C00012B05D108233B627B68FA691A6109E047
:10192C0008233B627B68FA695A6103E000233B623F
:10193C0000E000BFBB69FF2B01D87B6801E07B682E
:10194C0004337B61BB69FF2B02D87B6A9B0002E0EE
:10195C007B6A083B9B003B617B691A680F213B69E2
:10196C0001FA03F3DB431A40396A3B6901FA03F3CA
:10197C001A437B691A603B685B6803F08053002B49
:10198C0000F0B1804D4B9B694C4A43F001039361CD
:10199C004A4B9B6903F00103BB60BB68484A7B6AF6
:1019AC009B08023352F82330FB607B6A03F003037D
:1019BC009B000F2202FA03F3DB43FA681340FB602F
:1019CC007B68404A934213D07B683F4A93420DD0C8
:1019DC007B683E4A934207D07B683D4A934201D1D3
:1019EC00032306E0042304E0022302E0012300E0C9
:1019FC0000237A6A02F0030292009340FA681343C0
:101A0C00FB602F497B6A9B080233FA6841F823205C
:101A1C003B685B6803F48033002B06D02D4B1A68AF
:101A2C002C49BB6913430B6006E02A4B1A68BB694F
:101A3C00DB43284913400B603B685B6803F40033BD
:101A4C00002B06D0234B5A682249BB6913434B60C9
:101A5C0006E0204B5A68BB69DB431E4913404B60C0
:101A6C003B685B6803F48013002B06D0194B9A6813
:101A7C001849BB6913438B6006E0164B9A68BB6927
:101A8C00DB43144913408B603B685B6803F4001321
:101A9C00002B21D00F4BDA680E49BB691343CB6086
:101AAC0021E000BF000032100000311000002210B5
:101ABC000000211000001210000011100010024054
:101ACC000000014000080140000C014000100140E2
:101ADC0000140140000401400B4BDA68BB69DB4386
:101AEC0009491340CB607B6A01337B623B681A68FF
:101AFC007B6A22FA03F3002B7FF48EAE00BF00BF8B
:101B0C002C37BD4680BC70470004014080B483B0C4
:101B1C0000AF78600B467B8013467B707B78002B84
:101B2C0003D07A887B681A6103E07B881A047B688F
:101B3C001A6100BF0C37BD4680BC704780B485B0BD
:101B4C0000AF78607B6803F00703FB600C4BDB682D
:101B5C00BB60BA684FF6FF031340BB60FB681A0208
:101B6C00BB68134343F0BF6343F40033BB60044AC8
:101B7C00BB68D36000BF1437BD4680BC704700BF44
:101B8C0000ED00E080B400AF044BDB681B0A03F0EF
:101B9C0007031846BD4680BC704700BF00ED00E04F
:101BAC0080B483B000AF0346FB7197F90730002B6C
:101BBC000BDBFB7903F01F02064997F907305B0931
:101BCC00012000FA02F241F8232000BF0C37BD4679
:101BDC0080BC704700E100E080B483B000AF0346E6
:101BEC003960FB7197F90730002B0ADB3B68DAB2DE
:101BFC000C4997F907301201D2B20B4483F8002339
:101C0C000AE03B68DAB20849FB7903F00F03043BA6
:101C1C001201D2B20B441A7600BF0C37BD4680BC01
:101C2C00704700BF00E100E000ED00E080B489B037
:101C3C0000AFF860B9607A60FB6803F00703FB61E2
:101C4C00FB69C3F10703042B28BF0423BB61FB69A9
:101C5C000433062B02D9FB69033B00E000237B61B4
:101C6C004FF0FF32BB6902FA03F3DA43BB681A4048
:101C7C007B699A404FF0FF317B6901FA03F3D9433A
:101C8C007B680B40134318462437BD4680BC704715
:101C9C0080B582B000AF78607B68013BB3F1807F88
:101CAC0001D301230FE00A4A7B68013B53600F21EB
:101CBC004FF0FF30FFF790FF054B00229A60044B6A
:101CCC0007221A60002318460837BD4680BD00BFA6
:101CDC0010E000E080B582B000AF78607868FFF764
:101CEC002DFF00BF0837BD4680BD80B586B000AF64
:101CFC000346B9607A60FB7300237B61FFF742FFF8
:101D0C0078617A68B9687869FFF790FF024697F9AD
:101D1C000F3011461846FFF75FFF00BF1837BD465E
:101D2C0080BD80B582B000AF0346FB7197F90730D8
:101D3C001846FFF735FF00BF0837BD4680BD80B59C
:101D4C0082B000AF78607868FFF7A2FF03461846B0
:101D5C000837BD4680BD80B400AF00BFBD4680BC17
:101D6C007047000080B584B000AF78607B68002BB2
:101D7C0001D101232BE17B6893F83D30DBB2002BC2
:101D8C0006D17B68002283F83C207868FEF72AFC99
:101D9C007B68242283F83D207B681B681A687B686B
:101DAC001B6822F001021A607B681B681A687B684A
:101DBC001B6842F400421A607B681B681A687B68D7
:101DCC001B6822F400421A60FFF7EAFCF8607B689B
:101DDC005B68814A934207D8FB68804A934294BF60
:101DEC0001230023DBB206E0FB687D4A934294BFDB
:101DFC0001230023DBB2002B01D00123E7E0FB68B9
:101E0C00784AA2FB03239B0CBB607B681B685B6856
:101E1C0023F03F017B681B68BA680A435A607B68F1
:101E2C001B681B6A23F03F017B685B686A4A93421C
:101E3C0002D8BB68013309E0BB684FF4967202FB11
:101E4C0003F3694AA2FB03239B0901337A681268E6
:101E5C000B4313627B681B68DB6923F44F4222F04F
:101E6C00FF027B685B685C498B4219D8FB68591E82
:101E7C007B685B685B00B1FBF3F3591C40F6FC73A9
:101E8C000B40002B0AD0FB68591E7B685B685B001B
:101E9C00B1FBF3F30133C3F30B0351E004234FE025
:101EAC007B689B68002B11D1FB68581E7B685968B6
:101EBC000B465B000B44B0FBF3F30133C3F30B0392
:101ECC00002B0CBF01230023DBB212E0FB68581E71
:101EDC007B6859680B469B000B4499000B44B0FB84
:101EEC00F3F30133C3F30B03002B0CBF01230023CB
:101EFC00DBB2002B01D0012322E07B689B68002B16
:101F0C000ED1FB68581E7B6859680B465B000B446E
:101F1C00B0FBF3F30133C3F30B0343F400430FE0C3
:101F2C00FB68581E7B6859680B469B000B44990054
:101F3C000B44B0FBF3F30133C3F30B0343F4404303
:101F4C00796809681343CB617B681B681B6823F0B5
:101F5C00C0017B68DA697B681B6A1A437B681B6863
:101F6C000A431A607B681B689B6823F4034323F0C5
:101F7C00FF037A6811697A68D26811437A6812682B
:101F8C000B4393607B681B68DB6823F0FF017B6865
:101F9C005A697B689B691A437B681B680A43DA6041
:101FAC007B681B681A687B681B6842F001021A6028
:101FBC007B6800221A647B68202283F83D207B68B2
:101FCC0000221A637B68002283F83E200023184607
:101FDC001037BD4680BD00BFA08601007F841E0067
:101FEC00FF083D0083DE1B43D34D6210002103E04C
:101FFC000B4B5B58435004310A480B4B42189A4226
:10200C00F6D30A4A02E0002342F8043B084B9A42FA
:10201C00F9D3FFF7A0FE00F00FF8FEF7A1F8704718
:10202C00E4200008000000200C0000200C00002020
:10203C0014010020FEE7000070B500260C4D0D4C7D
:10204C00641BA410A64209D100F022F800260A4D08
:10205C000A4C641BA410A64205D170BD55F8043B74
:10206C0098470136EEE755F8043B98470136F2E7FE
:10207C00DC200008DC200008DC200008E020000840
:10208C0003460244934200D1704703F8011BF9E761
:10209C00F8B500BFF8BC08BC9E467047F8B500BF49
:0820AC00F8BC08BC9E46704719
:1020B40002030405060708090A0B0C0D0E0F101085
:1020C40000000000000000000102030406070809E4
:0820D4000000000001020304FA
:0420DC0031010008C6
:0420E0000D010008E6
:0C20E40010000000010000000024F400C7
:0400000508001FF9D7
:00000001FF
